:1000000001100B003B000000A0330000FF000000C7
:1000100002199CE49002C3F0A3F022022BEC53BA25
:100020000F43BA3075BBFF121D4A90001EE0F5B4B5
:10003000EF700AF5B375B26175B1A8800690001B28
:10004000121D8D121D9953AAFB22FF0229EC53BAEF
:10005000FEE5B920E004E51D6005E5B930E1FBE40B
:10006000F5BF53B9FD53B9FEF51D22022126BB0190
:100070000689828A83E0225002E722BBFE02E32245
:1000800089828A83E49322BB010989828A83F8E00A
:1000900028F022500327F722BBFE05F8E328F322BD
:1000A0008A838982F8E4932822BB010689828A83A5
:1000B000F0225002F722BBFE01F322EF8DF0A4A83C
:1000C000F0CF8CF0A428CE8DF0A42EFE22C5F0F83F
:1000D000A3E028F0C5F0F8E582158270021583E0F0
:1000E00038F022BB0110E58229F582E5833AF583D9
:1000F000E0F5F0A3E0225009E92582F886F008E651
:1001000022BBFE0AE92582F8E2F5F008E222E58347
:100110002AF583E993F5F0A3E99322F8BB0111E5F1
:100120008229F582E5833AF583E8F0E5F0A3F02231
:100130005009E92582C8F608A6F022BBFE09E92588
:1001400082C8F2E5F008F222EF2BFFEE3AFEED391D
:10015000FDEC38FC22C3EF9BFFEE9AFEED99FDEC1F
:1001600098FC22E88FF0A4CC8BF0A42CFCE98EF054
:10017000A42CFC8AF0EDA42CFCEA8EF0A4CDA8F00F
:100180008BF0A42DCC3825F0FDE98FF0A42CCD35D3
:10019000F0FCEB8EF0A4FEA9F0EB8FF0A4CFC5F03D
:1001A0002ECD39FEE43CFCEAA42DCE35F0FDE43C36
:1001B000FC2275F008758200EF2FFFEE33FECD3381
:1001C000CDCC33CCC58233C5829BED9AEC99E582C8
:1001D00098400CF582EE9BFEED9AFDEC99FC0FD554
:1001E000F0D6E4CEFBE4CDFAE4CCF9A88222B80044
:1001F000C1B90059BA002DEC8BF084CFCECDFCE50F
:10020000F0CBF97818EF2FFFEE33FEED33FDEC3332
:10021000FCEB33FB10D703994004EB99FB0FD8E5B7
:10022000E4F9FA227818EF2FFFEE33FEED33FDEC00
:1002300033FCC933C910D7059BE99A4007EC9BFCF6
:10024000E99AF90FD8E0E4C9FAE4CCFB2275F01082
:10025000EF2FFFEE33FEED33FDCC33CCC833C810A7
:10026000D7079BEC9AE899400AED9BFDEC9AFCE8D5
:1002700099F80FD5F0DAE4CDFBE4CCFAE4C8F92222
:10028000EB9FF5F0EA9E42F0E99D42F0EC6480C8F5
:1002900064809845F022EB9FF5F0EA9E42F0E99DDC
:1002A00042F0E89C45F022E8600FECC313FCED132C
:1002B000FDEE13FEEF13FFD8F122E8600FEFC3331A
:1002C000FFEE33FEED33FDEC33FCD8F122BB010D24
:1002D000E58229F582E5833AF58302032B5007E98D
:1002E0002582F802044DBBFE07E92582F802033798
:1002F000E58229F582E5833AF583020459BB0107BB
:1003000089828A830203B15005E9F8020486BBFEA4
:1003100005E9F80203BD22BB010DE58229F582E55E
:10032000833AF5830203B15007E92582F802048677
:10033000BBFE07E92582F80203BD22E0FCA3E0FD35
:10034000A3E0FEA3E0FF22E2FC08E2FD08E2FE08D3
:10035000E2FF22E0F8A3E0F9A3E0FAA3E0FB22E247
:10036000FB08E2F908E2FA08E2CBF822BB010789B0
:10037000828A830203435005E9F8020469BBFE0543
:10038000E9F802034F89828A830204767401FF33FD
:1003900095E0FEFDFCA3A3A3E0CF2FF0E58215823C
:1003A00070021583E0CE3EF0E5821582700215835F
:1003B000E0CD3DF0E582158270021583E0CC3CF083
:1003C00022ECF0A3EDF0A3EEF0A3EFF022ECF208A4
:1003D000EDF208EEF208EFF222A8828583F0D083D6
:1003E000D0821203E01203E01203E01203E0E47390
:1003F000E493A3C583C5F0C583C8C582C8F0A3C56F
:1004000083C5F0C583C8C582C822D083D082E49357
:10041000F208740193F208740293F208740393F2E1
:10042000740473A42582F582E5F03583F58322FAFE
:10043000E6FB0808E6F925F0F618E6CA3AF622E0E7
:10044000FBA3E0FAA3E0F922EBF0A3EAF0A3E9F0C2
:1004500022E493FB740193FA740293F922E6FC08F8
:10046000E6FD08E6FE08E6FF22E493FC740193FD36
:10047000740293FE740393FF22E6FB08E6F908E694
:10048000FA08E6CBF822E493F8740193F974029326
:10049000FA740393FB22ECF608EDF608EEF608EF8B
:1004A000F622900291EFF01212AAE0FEA3E0FF758F
:1004B000F002ED9000B81211F012329CD3EF94C804
:1004C000EE940040089002927401F08014D3EF94EF
:1004D00064EE940090029240057402F0800374036D
:1004E000F0900291E075F004A424CAF9740035F08C
:1004F000FA7B011211B2900292E09002A3F0122A4C
:10050000F2900291E01212AAEEF0A3EFF0ED75F076
:1005100004A4243BF9740135F0FA7B019002911296
:1005200011B29002A37406F0122AF2900291E090A8
:10053000012B1212AEEEF0A3EFF09002941203C959
:1005400000000000E4900292F090029412032BC08D
:1005500004C005C006C007900291E0FD75F014903C
:1005600000DA120413C083C082900292E0D082D0DD
:10057000831212AEE0FEA3E0FFED1211EA12329CEC
:10058000AB07AA06E4F9F8D007D006D005D00412CC
:1005900001389002941203B1900292E004F0E0C39B
:1005A000940A40A590029412032B900291E09001CE
:1005B0005D121376900252E07002A3E0703A90014F
:1005C0002AE075F00A84E5F0F0E4FFEF1211EA7515
:1005D000F014EF9000DA120413C083C08290012A55
:1005E000E0D082D0831212AEECF0A3EDF00FEFB4A6
:1005F00004D990012AE004F0301F030206D0301322
:10060000030206D090024CE07002A3E060030206F1
:10061000D0900240E07002A3E060030206D078169A
:10062000E2FE08E2FFC394C4EE9409501890335CD4
:1006300074019324CEFDE49334FFFCD3EF9DEE9C34
:1006400040030206D0900291E0640360030206D0EA
:100650009002981203C9FFFFFFFFE4900293F0900D
:100660000292F0900292E0FFC39404502D75F004C2
:10067000EF90015D12124B900298120343D31202C5
:1006800086400F900292E0A3F01212459002981259
:1006900003B1900292E004F080C99001BAE0121216
:1006A00045E47B1E1213535037900293E09001BA39
:1006B000F0A3E09001331211B69001B6121266C099
:1006C00006C0079001BAE075F002900133120413DE
:1006D0001212C6D007D0061201459001B61203B11E
:1006E000900291E0B403169001BAE075F002121383
:1006F0007FE0FFA3E09000C0CFF0A3EFF09001B641
:1007000012032B9000C1E02FFF9000C0E03E90014B
:100710005BF0A3EFF09001BAE0A3F0900291E0FF4C
:1007200090012B1211ED75F002EF900133120413BA
:10073000ECF0A3EDF07A0179A5121251741CF0903F
:10074000015B1213067A01796D122E927B017A01F8
:10075000796D7D1C122362AF41AE40AD3FAC3E903F
:1007600001A60203B1900288EEF0A3EFF0A3ECF033
:10077000ED12126C401290028AE0FFA3E090028E0C
:10078000CFF0A3EFF00209AD900056E090028C127A
:1007900009BE9002921212301209BE900290EEF041
:1007A000A3EFF09001EDE090028CF075F002900163
:1007B000E11211F01209FD900296121230F075F05C
:1007C000029001E11211F01209FD900294EEF0A3E3
:1007D000EFF090020EE090028C1212079002A0122D
:1007E00003B112123512120790029C1203B190024B
:1007F0008A1211BCC006C0079001EE1212C6D007C3
:10080000D0061201459002981203B1D37817E294F2
:10081000C418E29409501A90021FE0601490026B11
:10082000E0700E30020B20000812131D5003020965
:100830008790024CE07002A3E060030209879002F7
:1008400040E07002A3E0600302098790021CE0B45C
:1008500001131212E1400E9002707403F0E4900252
:100860008DF002088A20021974031212D114121199
:10087000C5500CED75F0821211A350030208F780E9
:1008800019D312131D402974021212D11211C5502E
:1008900009ED75F0821211A3406D9002A01203C9F8
:1008A0000000000090029C1203C900000000805765
:1008B000D3900264E09400900263E09400400280D0
:1008C0001D30000E9002707409F090028D740BF0D0
:1008D000803520021790021FE07011301D0E90022B
:1008E000707408F090028D740AF0801B90020FE083
:1008F000900270B401097404F090028DF0800874C5
:1009000001F090028D04F075F09612119F400302E1
:10091000095A900270E0FD75F0821211A35006EDA5
:100920001211CB406990028DE02406FFE433FEC330
:10093000900293E09F900292E09E401412125D900C
:1009400001F21203B17F0E1230AD90024E02097710
:10095000D390024FE0940090024EE09400400302D6
:10096000097E75F08212119F400B12138C90029C2D
:100970001209DB8012900270E01211CB40191213A1
:100980008C9002A01209DBEEF0A3EFF080091212A6
:100990005D9001F21203B190028A1211BC9001F233
:1009A00012034312014512291590028EEEF0A3EFB7
:1009B000F0A3E0FEA3E0A31213851221ED781290BC
:1009C000021812131390028EE0FEA3E0FF22F0251E
:1009D000E0244AF582E43400F583E0FCA3E0FD90D6
:1009E0000288E0FEA3E0FF12329C221203431201B0
:1009F000459001F21203B17F0D1230AD90024CEE22
:100A0000F0A3EFF07F181230AD9002692290028AB5
:100A1000E0FEA3E0FF12329C22900287EEF0A3EFEB
:100A2000F0E4A3F0D390023BE0940090023AE0940B
:100A3000004006121B53020C4C90022A121B6C94AD
:100A400000EE94005005121AC1401E121B304008DF
:100A50009001CCEAF0A3EBF09001CCE0FDA3E078AC
:100A600014CDF208EDF2020C5290021CE064016019
:100A700003020B1F121B805003020B1F121B30407E
:100A8000089001CCEAF0A3EBF0D3EF9400EE9400D1
:100A90005005121AC14003020B47121ACE5064EDE2
:100AA000AE047802CEC313CE13D8F9FFC3EB9FEA8E
:100AB0009E4006900217E0604A120CA34011121BE0
:100AC000AE7802CEC313CE13D8F9121B735034A2E2
:100AD00015301401B3402C121BCA08121B4C9FEC9A
:100AE0009E5009C3EF94ECEE942C4017D3EF94EC96
:100AF000EE942C5003020C52ED94ECEC942C400339
:100B0000020C529002177401F0D37813E294EC189F
:100B1000E2942C40147815E294EC18E2942C5009DD
:100B2000742CF20874ECF28003121B21020C4C208E
:100B30000003020BB29001CCE0FEA3E0121B4AD3EB
:100B40009FEC9E40089001CCECF0A3EDF0121B0B43
:100B50005005121AC14006121B21020C52121ACE65
:100B60005054EDAE047802CEC313CE13D8F9FFC3B0
:100B7000EB9FEA9E4006900217E0603A120CA340F9
:100B800011121BAE7802CEC313CE13D8F9121B7309
:100B90005024A215301401B3401C121BCAFF781553
:100BA000E29F18E29E4003020C52C3EF94E0EE94E1
:100BB0002E4003020C529002177401F0121B210206
:100BC0000C4C90006A120343C000121BCAFFE4FCE5
:100BD000FDD00012013890006A1203B1900070E459
:100BE00075F0011200BD121BAEC3121B7450357894
:100BF00008E2FE08E2FF900044E0FCA3E0FD1232B0
:100C00009CD3EF9414EE9400501AA215301401B343
:100C1000401290023E121B6C90023DE09F90023CFD
:100C2000E09E403E900269E07002A3E070349000C4
:100C300070E0FEA3E0FFFBAA06E4F9F890006A1258
:100C4000032B1201DE121B8E400E7815E22FFF18C7
:100C5000E23EC313FEEF13FFEE121B2990028974CC
:100C600001F0900289E0604AE4900070F0A3F090F7
:100C7000006A1203C90000000090335CE493FE7424
:100C800001937802CEC313CE13D8F92410FFEE34AB
:100C900027FED39001CDE09F9001CCE09E400774E9
:100CA00027F0A37410F0121B53121BA690023C12E3
:100CB0001B19227808E2FE08E2FF900044E0FCA342
:100CC000E0FD12329CD3EF9414EE940022E49002E3
:100CD000A9F0EF7003020E7612003E9001B21203EB
:100CE000C900000000E49002AAF09002AF1203C90C
:100CF000000000009002AAE0FF122DE2121D729087
:100D000002AB1203B1E49002A8F09002AB12032BE5
:100D10009002AAE075F00C900073120413C083C017
:100D2000829002A8E0D082D08375F00412041312DE
:100D300003B1121D7DE0B403D178579002AB121DB0
:100D4000619002AB1203B19002AAE0FF9000B812CA
:100D50001CCC9000C2121CCB90012B121CCB75F046
:100D600002EF900133121CCF75F004EF9000CA120D
:100D700004131203C9009C40009002AAE0FB75F026
:100D80000490013B1204131203C9009C4000121D81
:100D90000D75F004EB90014B1204131203B1E490B3
:100DA00002A8F09002A8E0FFC3940A50159002AA8E
:100DB000E075F0149000DA120413121CCB121D7DA2
:100DC00080E19002AF120343121D0D120138900210
:100DD000AF1203B19002AAE004F0C39404500302DE
:100DE0000CE490015B121CD29000C0121CD2900146
:100DF0005BE0FEA3E0FF9002A9E075F00290016DB8
:100E0000120413EEF0A3EFF09001B212034390012D
:100E10005BE0FEA3E0FFE4FCFD1201389001B2129A
:100E200003B19002A9E004F0C3941C5003020CD556
:100E3000121D879001A6121D849001AA121D8478AC
:100E4000061202AA9001AE1203B1E49001BAF0A317
:100E5000F0A3F09001B61203C900000000E4900274
:100E6000A8F09002A8E0FFC39405500F75F002EFC0
:100E70009001BF121CCF121D7D80E79001CA121C89
:100E8000D2E49002E2F09001A6121D1090006412CC
:100E900003B190006A1203C900000000E4900070E2
:100EA000F0A3F078147427F2087410F27812742703
:100EB000F2087410F2E47816F208F2900215F0A32A
:100EC000F09001BD121CD29001CE121CD2A31203CD
:100ED000C90009C4009001D4121CD2A31203C90096
:100EE00009C4009001DA121CD2A31203C90009C47C
:100EF000009001E0740AF09001F0121CD2900211EF
:100F00001203C9000000009001EE121CD29001F201
:100F10001203C900000000E49002A8F09002A8E0CB
:100F2000FB75F0049001F61204131203C9000000CF
:100F30000075F002EB9001E1121CCF121D7DE0B4B0
:100F400006DAE4900254F0A3F0A3F0A3F090026755
:100F5000F0A3F0A3F0A3F090020FF0A3F022900210
:100F600024E475F0011200BDD3900229E0940090B2
:100F70000228E0940040031231C5D390022BE09484
:100F80000090022AE0940040031231C5D39002334E
:100F9000E09400900232E0940040031231C5D390F7
:100FA0000239E09400900238E09400400F1231C5FD
:100FB000900238E07002A3E07002D210D3900237A2
:100FC000E09400900236E0940040031231C5D390C3
:100FD0000235E09400900234E0940040031231C5E1
:100FE00090021EE030E011E490023AF0A3F0A3F08A
:100FF000A3F0A3F0A3F08042D390023BE0940090D2
:10100000023AE09400401A1231C590023AE07002B0
:10101000A3E0700D7F0B1230AD90023EEEF0A3EF17
:10102000F0D390023FE0940090023EE09400400A2A
:1010300090023CE475F0011200BDD3900243E094AD
:1010400000900242E0940040031231C5D390024D5B
:10105000E0940090024CE0940040031231C5D3901C
:10106000024FE0940090024EE0940040031231C51C
:10107000D3900251E09400900250E094004003129B
:1010800031C5D3900253E09400900252E0940040A6
:10109000051231C5800D7F101230AD900252EEF076
:1010A000A3EFF0D3900255E09400900254E0940036
:1010B00040031231C5D3900257E09400900256E0ED
:1010C000940040031231C5D3900259E0940090027D
:1010D00058E0940040031231C5D3900264E09400BC
:1010E000900263E0940040031231C5D3900262E0A5
:1010F0009400900261E0940040031231C5D3900245
:1011000066E09400900265E0940040031231C5D37C
:10111000900268E09400900267E09400400312316E
:10112000C5D390026AE09400900269E09400400305
:101130001231C5D390026FE0940090026EE09400EB
:1011400040031231C5D3900241E09400900240E088
:10115000940040031231C5D3900272E094009002D3
:1011600071E0940040031231C5D390022DE0940049
:1011700090022CE0940040031231C5D390022FE07E
:10118000940090022EE0940040031231C5D39002E7
:1011900031E09400900230E0940040031231C52207
:1011A00074FF90028CFEFDFC120343D30202709088
:1011B0000270E0A4FFC3900295E09F900294E09536
:1011C000F022E09000B875F002120413E0FEA3E0F4
:1011D000FFE4FCFD22F0900270E0FD75F0C8A4FF72
:1011E000C3900297E09F900296E095F022E47FE89A
:1011F0007E03FDFC1203430201539000C275F0020E
:10120000120413E0FCA3E0FD22900056E02457F501
:1012100082E43400F58322F075F0049001F61204A4
:10122000131203439001F212032B0201459002872F
:10123000E075F00CA42473F9740035F0FA7B0122F8
:10124000EEF0A3EFF090028CE02403F0E075F006DE
:1012500084AFF0EF2290015D75F0041204130203D5
:101260002B7B0190029F1204389002A2229001F27F
:1012700012032B900298120343020138A3F0D3907B
:10128000022BE0940090022AE09400229002AB121C
:1012900003B19002A31203439002AB12032B02018D
:1012A000DE90029F12042F02005EFFE4FCFDFE129E
:1012B000034F1201537807020297FD9000C275F0A8
:1012C0000202041324FFFFEE34FFFE3395E0FDFC21
:1012D00012035C020153E0FEA3E0FBAA06E4F9F866
:1012E00022900270F090028D2212042F74010200ED
:1012F00077D390022DE0940090022CE094002275A8
:10130000F004A4F58285F0832290029112043890B3
:1013100002947403F022E0FFA3E09002A3CFF0A3B5
:10132000EFF022E2FF08E2CFF0A3EFF0229002728A
:10133000E09400900271E09400221202978F278EB1
:10134000268D258C24221202978F278E268D258CA0
:1013500024227857E6FFE4FCFDFE22EEF0A3EFF036
:101360007B0122FAF9F8C3020286E0FF74017E00D5
:10137000A80708221203B19002A702032B12033719
:101380009002950203B175F0041204130203B190A8
:1013900000B8020413FFE0FCA3E0FD229001F2027A
:1013A000032B90021EE0900223F0121B0B5005123B
:1013B0001AC14007E490021EF08008122DA6900288
:1013C0001EEFF0121B8E400302156990021EE0FF13
:1013D000122ECBEF700D121B0B5008121AC15003C6
:1013E00002156990021FE0705690026BF0A3F0A303
:1013F000F090005DF0A3F0900267F0A3F0C21EC26F
:10140000121226A3122D1D7F011230ADD39002358A
:10141000E09400900234E09400401E30140DEF7808
:1014200003CEC313CE13D8F9FF800EEEC4F854F0E8
:10143000C868FEEFC4540F48FF120A090214E09076
:10144000005DE07002A3E0701390005D121B567FF8
:10145000171230AD900267EEF0A3EFF0900267E054
:101460007004A3E06401702A90005DE0FEA3E0FF39
:101470002496FDE43EFC7808121B3A4004D21E80FC
:1014800011EF246AFFEE34FFFEC3EB9FEA9E500289
:10149000D212301E37121B629DEE9C405312156A09
:1014A000504E7F141230ADEF7802CEC313CE13D856
:1014B000F9121B9C7F151230AD7C007D031200AB2E
:1014C000900263EEF0A3EFF0C21E802430122112CE
:1014D0001B629DEE9C401912156A50147F14123045
:1014E000ADEF7802CEC313CE13D8F9121B9CC212F3
:1014F000900261E07004A3E0640170031227C090C1
:10150000021FE0FFA3E06F603E122C897F191230AA
:10151000AD90026EEEF0A3EFF0900221E030E421F6
:10152000D3121AC15005121B0C4009E490023AF084
:10153000A3F0800D7F071230AD90023AEEF0A3EFDA
:10154000F090021FE0A3F090021FE0602C90026E6A
:10155000E07004A3E0640170207816E2FE08E290D7
:10156000026C121B9FC394E2EE9404500790026B2E
:101570007401F022E490026BF02212329CAC06ADB2
:1015800007900215E0C313FEA3E013C39DEE9C2257
:1015900090028812134B7A0179D09002881211BC04
:1015A0009002987405F0122A9D9001CE12134B7A86
:1015B0000179D69002881211BC9002987404F0123E
:1015C0002A9D9001D4EEF0EF12126C40028033900D
:1015D00001BD1211BCC006C0079001CE1212C6D0C8
:1015E00007D00612014590028C1203B1E47FFA1273
:1015F0001192400690029002164FE47FB4121192AD
:1016000040099002907405F0021652E47F641211B2
:10161000924002802274FF7FF1FEFDFC90028C124A
:101620000343C31202704008900290740AF08032A3
:101630007F9C12119040089002907408F080237FE4
:101640004C12119040089002907406F0801474FFC0
:101650007F0612119290029040057404F08003748A
:1016600002F0900290E09001E0F0900269E07002D8
:10167000A3E0701E9001BDE0FEA3E09001D4121320
:101680008512329CC3EF9496EE940050059001D4DD
:1016900080039001BD1211BC900290E0900298F07E
:1016A0007B017A0179DC122A9D90028AEEF0A3EF89
:1016B000F0900250E07002A3E070777F0F1230AD1F
:1016C000EEC313FEEF13FF90025012134B7A007912
:1016D000561212537406F07808E2FF08E2A3CFF026
:1016E000A3EFF07A00794A122E927B017A0179ED0C
:1016F0001212537406F090028A1213067A0179E1ED
:10170000122E927B017A02790E9002941204389084
:1017100002977406F012138C9002981203B17A01AA
:1017200079F6122FAC78169002151213131211F9D4
:10173000E4F090028AE0FEA3E0FF22E4900288F049
:101740007B017A0079371212F9780012136D7A0052
:10175000792B122F757B017A00792B1218487B3276
:1017600012135350069002887401F09002E2E09048
:101770000287F0E4900289F012121DC002C0017AC3
:101780000079A31212F9780A12136DD001D0021257
:101790002F7512121D1218487BF47A01121354503F
:1017A000069002897401F0300043900288E07004D2
:1017B000A3E060397B017A00792B12181678561253
:1017C000134490028A1211E47807120297780412E7
:1017D00003BD12121D12181612134290028A121122
:1017E000E47807120297780E1203BD80367856E629
:1017F000780012129A78041203BD7804120337ECB1
:101800004D4E4F70037F02227857E6780A12129AE3
:10181000780E1203BD780E120337EC4D4E4F700355
:101820007F02227F04227D03121EB1C3E541953958
:10183000FFE5409538FEE53F9537FDE53E9536FCE2
:10184000C3EF953DFFEE953CFEED953BFDEC953AE3
:10185000FC90028A1203B1227D03121EB1C3E53946
:10186000953DFFE538953CFEE537953BFDE5369522
:101870003AFCE4229002911203B112126E405B9086
:10188000029112032B9000381203B1E47F32FEFD67
:10189000FC9000381211E4780A12029790003C1272
:1018A00003B1E490029AF090029AE0FFC3940450CE
:1018B0002975F00CEF90007B120413120343C00053
:1018C000121342D0001212A290029AE09000A412C9
:1018D000137690029AE004F080CD900299E0900097
:1018E000A4121248E47B23FAF9F8120153780A1281
:1018F00002979000B41203B190003C120343900091
:1019000038121217C004C005C006C00790003C1270
:1019100003439002911212179002A31203B1900296
:10192000A71203C900010000D007D006D005D004DB
:101930001224179000401203B19000B41203439098
:101940000295121217C004C005C006C0079002A37A
:101950001203C90001000090004012032B9002A75F
:101960001203B1D007D006D005D00412241790027C
:101970009B1203B19000B412032BAB07AA0690028E
:101980009B12032BEF2BFBEE3AFA900299E0F975CC
:10199000F00490014B12124BC3EB9FFFEA9EFE75C1
:1019A000F002E912137FEEF0A3EFF022439F04E46C
:1019B00053C6DFE5C600B5C6F375830075820775AB
:1019C000FD0DE4E5FEF4FF75830075820675FD0DDF
:1019D000E4E5FEB50704F59E8003759E00781000CF
:1019E00000D8FC53C6E043C60843C6807596077509
:1019F000970975830075820475FD0DE5FD0404F5F6
:101A00008F75830075820375FD0DE4E5FEF4FF75A7
:101A1000830075820275FD0DE4E5FEB50704F595BA
:101A2000800375958375BE0E5392FE9001007F0072
:101A30007E02E4F0A3DFFCDEFA78007F00E4F20827
:101A4000DFFC78FFE4F6D8FD7581C0021A7C020045
:101A5000000224C1E493A3F8E493A34003F68001B9
:101A6000F208DFF48029E493A3F85407240CC8C3D8
:101A700033C4540F4420C8834004F456800146F612
:101A8000DFE4800B0102040810204080903344E41E
:101A90007E019360BCA3FF543F30E509541FFEE470
:101AA00093A360010ECF54C025E060A840B8E49332
:101AB000A3FAE493A3F8E493A3C8C582C8CAC58374
:101AC000CAF0A3C8C582C8CAC583CADFE9DEE780F9
:101AD000BE900233E09400900232E0940022900025
:101AE00070E475F0011200BD900287E0FCA3E0FDF8
:101AF000ECC313FEED13FF900070E0FAA3E0FBC30C
:101B00009FEA9E2290335C74019324CEFDE49334CB
:101B1000FFFCC37817E29D18E29C22D390022BE0D1
:101B2000940090022AE0940022F0A3F0A3F0A3F026
:101B3000229001CCE0FFA3E0CF7814F208EFF2226C
:101B40009001CCE0FCA3E0FD7812E2FA08E2FBD3BE
:101B50009DEA9C227814E2FE08E27812FFE2FC087B
:101B6000E2FD229000447808E2FF08E2CFF0A3EF04
:101B7000F0227816E2FC08E2FD900215E0FEA3E0F8
:101B8000FFD322D3FF900071E09F900070E09E226F
:101B9000D390022DE0940090022CE0940022D39088
:101BA0000272E09400900271E0940022900261FFC2
:101BB000EEF0A3EFF022E4900245F0A3F0229002B1
:101BC00087E0FEA3E02290335C93FC740193FD2236
:101BD000C37815E29DFF18E29C227812E2FE08E22B
:101BE0002220CA03021CCAE5467003021CCAE4FF95
:101BF00074462FF8E6FE74882FF582E43402F583EC
:101C0000EEF0E4F60FEFB405E7900288E0FF54F041
:101C1000FEEF540F900287F0AF06EF24A06024245B
:101C2000F0602824D0603824E07003021C9F24E078
:101C30007003021CBE24906003021CCA7853E64461
:101C40000180057853E654FEF6802BE4FF123257EC
:101C50007855EFF67851BFFF03760B2276FF22907E
:101C60000287E0FD70147853E630E26E54FBF69084
:101C7000025AE04408F0751C0222ED6401705B78A2
:101C800053E620E20D4404F690025AE04404F07555
:101C90001C02D390022FE0940090022EE0940040AA
:101CA000397F1B1230AD900230EEF0A3EFF022121C
:101CB00027C0D3900231E09400900230E0940040BD
:101CC0000790021C7401F022E490021CF022E490C0
:101CD000022AF0A3F0D21F1227C022EF75F00212E1
:101CE00004137427F0A37410F0221201539002879A
:101CF0001203B190025D12034390028712032B126C
:101D000001DE78081202979002871203B17F0FE478
:101D1000FEFDFC900287120343D30202869002ABC1
:101D200012032BEF24F0FFEE34D8FEED34FFFDEC70
:101D300034FFFC22900019E09033539322900287E5
:101D400012032BC3EF940FFFEE9400FEED9400FD01
:101D5000EC9400FC9002870203B175A9A075AC0356
:101D600075ADC075AEC022E5BAF053BA0F43BA10D4
:101D700022E6FFE4FCFDFE12034312015378070242
:101D8000029712312F900019E0FF02298A9002A8D1
:101D9000E004F0221203B19001B202032BE0F5B38C
:101DA000A3E0F5B2A3E0F5B122900018E090335320
:101DB00093F5AB2275BF0F43B92053B9FD229002B2
:101DC0008C12032B9002882290028C12032B90021B
:101DD0008822E49002A9F0EF607B12003E9000237D
:101DE0001203C90000000012312F90002312298233
:101DF0001201389000231203B19002A9E004F0C34D
:101E0000941C40E3E0FFFBE4FAF9F890002312038E
:101E10002B1201DE9002AA1203B178569002AA1288
:101E20001D6178041203BDE49002A8F09002A8E0BE
:101E3000FBC39403501F9002AA12032BEB25E0254D
:101E4000E0242BF582E43400F5831203B19002A85C
:101E5000E004F080D77804120337EF24D0FFEE348B
:101E60008A121D1A90001F1203B19000447475F07D
:101E7000A37430F0A31203C9001D4C00E49002A823
:101E8000F09002A8E0FFC394065027EF25E0244A13
:101E9000F582E43400F5837475F0A37430F0745760
:101EA0002FF582E43400F583E4F09002A8E004F01A
:101EB00080CFE4900056F078087475F2087430F220
:101EC0002290028E120438900291EDF0E4F528F58C
:101ED00027F526F52574FFF52CF52BF52AF529E4D1
:101EE000F530F52FF52EF52DF524900291E0FFE564
:101EF00024C39F507090028E12042F75F004E524C5
:101F0000A4F58285F0831202BD8F348E338D328C1E
:101F100031AF28AE27AD26AC25D31231DE400C857B
:101F20003428853327853226853125AF2CAE2BAD5D
:101F30002AAC29C31231DE500C85342C85332B8515
:101F4000322A853129E5302534FFE52F3533FEE58A
:101F50002E3532FDE52D35318F308E2F8D2EF52D1E
:101F60000524021EDA8528398527388526378525F8
:101F700036852C3D852B3C852A3B85293A85304189
:101F8000852F40852E3F852D3E900291AF30AE2F9C
:101F9000AD2EAC2D1231CC227B077A07900288122D
:101FA00003C90000000012003EEB601A74017E00BD
:101FB000A803088005C333CE33CED8F9FFADACEF0C
:101FC0005D70031B80E3EA601A74017E00A80208BA
:101FD0008005C333CE33CED8F9FFADAEEF5D7003CD
:101FE0001A80E3AF037401A807088002C333D8FC4A
:101FF000F5AC7401A802088002C333D8FCFFF5AD2C
:102000008FAE53AACF43AA04900287121D57121D08
:102010002442AB121D7290028C1203B1121DB81231
:102020000343C31202865006121DB81203B1900278
:1020300088120343C00090028812032B7803120217
:1020400097D0001201389002881203B190028812D2
:10205000032B90005F1203B143AA3053AAFB9002F6
:1020600087E0F5BA121D24F452AB121D4D227B07F6
:102070007A079002881203C90000000012003EEBAC
:10208000601A74017E00A803088005C333CE33CEE6
:10209000D8F9FFADACEF5D70031B80E3EA601A7402
:1020A000017E00A802088005C333CE33CED8F9FFE5
:1020B000ADAEEF5D70031A80E3AF037401A80708AB
:1020C0008002C333D8FCF5AC7401A802088002C3B7
:1020D00033D8FCFFF5AD8FAE53AACF900287121D07
:1020E0005712312F12298590028C1203B1121DAEA6
:1020F000120343C31202865006121DAE1203B190A2
:102100000288120343C00090028812032B78031246
:102110000297D0001201389002881203B190028811
:1021200012032B90001A1203B143AA30900287E0E9
:10213000F5BA121D4D22C0E0C0F0C083C082C0D0ED
:1021400075D008C2CFD21130CD030221E220CC607D
:1021500030CB2285CE4FE54FC39480401675F003F7
:10216000E54F9026B71204131204418B4C8A4D8917
:102170004E8063807385CE35E54F7022E535B4100F
:10218000099002E3E0F452808066E535B4200890BF
:1021900002E3E042808059853546054F8052E54F85
:1021A000C3940550077446254FF8A635054F804067
:1021B000E54FB4C0057546C08036E54FB4C210780F
:1021C00053E630E2057546A080267546A18021E5DC
:1021D0004FC394804010784CE475F00112041F1234
:1021E000005EF5CE800A054FE54B254FF8E6F5CEAB
:1021F000D210D0D0D082D083D0F0D0E0329002A4E0
:10220000ECF0A3EDF0E4FD90020FE07034C3EF9426
:102210000AEE940040061211F97401F01211F9E06F
:102220007002C21DE4FF74572F1211FFE07004C248
:102230001D80130DEDB40602D21D0FEFB406E7802A
:10224000051211F9E4F0900256E07002A3E0705715
:10225000900254E07002A3E0704D90020FE0701BFA
:10226000301D187F111230AD900254EEF0A3EFF044
:1022700090020F7401F0D21BC21D2290020FE06485
:10228000017036C39002A5E0940A9002A4E0940085
:1022900050277F121230AD7C007D0C1200AB9002F3
:1022A00056EEF0A3EFF022900256E07004A3E06433
:1022B00001700690020FF0D21C2212003E9002889C
:1022C000121D5778001203FA000000009002877474
:1022D00005F075ABFF12312F780012034F122985DC
:1022E00012013878001203BDE4F5AB12312F7800EB
:1022F000120337C004C005C006C007122985A80410
:10230000A905AA06AB07D007D006D005D004120154
:102310004578001203BD900287E014F0E070B378B6
:102320000012034F7F007E257D307C001201DE907D
:1023300002891203B190028912032B9002911203B9
:10234000B17F967E007D007C00122FE3E47B32FAA1
:10235000F9F8C3120286500678567696800A9002E3
:102360008912032B7856A607900288E0F5BA121D51
:10237000992290029C12043890029FEDF0E4F5251A
:10238000F52674FFF527F528E4F52EF52DF52CF547
:102390002BF52490029FE0FFE524C39F5059900243
:1023A0009C12042F75F002E524A4F58285F08312B7
:1023B00000D3F52A85F029D39526E52995254006F1
:1023C000852925852A26C3E52A9528E529952750BC
:1023D00006852927852A28E4FCFDE52E252AFFE528
:1023E0002D3529FEED352CFDEC352B8F2E8E2D8DC8
:1023F0002CF52B0524809CE4852639852538F53776
:10240000F53685283D85273CF53BF53A852E4185F7
:102410002D40852C3F852B3E90029FAF2EAE2DADDB
:102420002CAC2B1231CC2290029F1203B1E47BE83A
:102430007A03F9F890029F12128B9002AF1203B147
:102440009002AF1211DDA804A905AA06AB079002FD
:102450009F1212179002B31213649002AF1211E48C
:1024600012127C9002B71203B19002A312032B90B8
:1024700002B71211E4A804A905AA06AB079002ABA3
:102480001212179002BB1213649002B31211E4905F
:1024900002AB1203B19002AB120343C000C001C0F3
:1024A00002C0039002BB1211DDD003D002D001D0D4
:1024B0000012013812127C9002BF1203B1E47FE8CF
:1024C0007E03FDFC9002B71211E49002BF12126667
:1024D000221230DC12337A123360122C3B12320893
:1024E0001230161232EFD2AF751C01E51C24FE60CB
:1024F0001E14603614605614606024047067123332
:10250000341232B21232DC12326E7F04122D62D2D9
:10251000D8E4900224F0A3F09002C3F0A3F0122EAE
:102520001DE51D70FC1232C88036D2D8E51D70FC46
:1025300012172B8F1C12256A9002E2E0900072F0B5
:102540009002E204F0122F041232C8801B12317B79
:102550008F1C122609120F4E800E12139212310791
:10256000751C038003751C01123380E51C64047024
:10257000030224DB121BD10224DB30111512336D50
:10258000745AF07F0A1230AD900236EEF0A3EFF0ED
:10259000C211A21492153002028020D390022BE0C7
:1025A000940090022AE094005011900237E09400C9
:1025B000900236E09400500320100A12336D745AD2
:1025C000F0C214800812336D7403F0D21430140872
:1025D000E4FF12307B1231E9A215301401B3501719
:1025E00090021FE06004D216800D7F021230AD9081
:1025F0000234EEF0A3EFF020141030150D7F03121B
:1026000030AD900271EEF0A3EFF090021FE0700881
:102610003016031227C0C216227F8090335CE493E9
:10262000FC740193FD1233247F8290335C74019318
:1026300024CEFDE49334FFFC1233247F847D647C3C
:10264000001233247F8A3018187D397C30123324ED
:102650007F887D397C301233247F8C7D397C3080BB
:102660001F7812E2FC08E2FD1233247F887816E21C
:10267000FC08E2FD1233247F8C7814E2FC08E2FDB2
:102680001233247F9AC00790027312330BD00712C3
:1026900033247F98C00790027712330BD007123390
:1026A000247F9CC00790027B12330BD00712332487
:1026B000022A4590023AE07002A3E07076300048AA
:1026C000121B44C39FEC9E503D121BC0900287F02A
:1026D000FCA3EFF0FD90335CE493C313FE7401930D
:1026E00013FFD3ED9FEC9E401D1227244045121B83
:1026F000A6900269E07002A3E07038900217E064CF
:102700000170300227C08026121B44C39FEC9E50EC
:102710001F121BC0FE900287F0A3EFF0D39432EE9D
:102720009400400A122724400A1227C08002800029
:10273000121BA6227F051230AD900245E475F00110
:102740001200BDFCD3E5F09FEC9E22780E120337F9
:1027500090028C1203B17804120337122E589001A4
:10276000B21203B190006412032B9001B212034322
:10277000C3120286500990021D7401F07F0222905C
:1027800001B212032B122B9B9001BDEEF0A3EFF0D0
:102790009001DAE0FFA3E09001EECFF0A3EFF0901C
:1027A00001BDE0FEA3E0FF1215809001DAEEF0FC1F
:1027B000A3EFF0FD7808E2FE08E2FF120755900152
:1027C000F0EEF0A3EFF07812EEF208EFF27F0522C0
:1027D000E51D70FCE4FF121DC2E4FF120CBDE49085
:1027E000021FF0900221F0900244F090023A121B76
:1027F00019A3F0A3F0900242F0A3F0900248121B3C
:1028000019A3F0A3F0900240F0A3F090024E121B27
:102810001990005DF0A3F0900217F0A208300001BB
:10282000B3500D7F041230AD900232EEF0A3EFF002
:102830003000137814742EF20874E0F29001CC7416
:1028400027F0A37410F022010073FE000E0100B8FF
:102850000100C20101B601015B0101B20101BD012C
:1028600001CE0101DA0101F0FE0012FE0014FE00AB
:102870001601021AFE0000FE000401003801003CAF
:10288000010040FE000801027B01028301028B016E
:1028900002930102520100DA01015D01027301029B
:1028A0007B0101BA0100CA01015D01020F0102545E
:1028B00001025601022A90025AE030E1091228F57D
:1028C00020180312290590025AE054FDF0900221CD
:1028D000E0540FFF602790025AE0FE30E206785F76
:1028E000A6078010EE30E31C900221E0540FC45480
:1028F000F0785FF62018061228F512290590025A82
:10290000E054F3F022C2107F081230AD900238EE8E
:10291000F0A3EFF022C2927F217E007D007C0012A6
:10292000323FD292229002A41203B1E47F607EEA89
:10293000FDFC9002A41211984004D2138002C2132D
:10294000E47FFF7EFFFDFC9002A4121198400C90E2
:1029500002A41203C90000FFFF8030E4FF9002A42C
:1029600012119550261227C0301E167F151230AD59
:102970007C007D031200AB900263EEF0A3EFF0C287
:102980001E9002A41203C9000027109002A4120393
:102990002B22120343900018E0FFEFC3940450056C
:1029A00053B9EF800343B910EF6003B4040B85B74C
:1029B0001985B61A85B51B803AEF64016004EFB43F
:1029C000050B85EB1985EA1A85E91B8026EF640261
:1029D0006004EFB4060B85F31985F21A85F11B80AC
:1029E00012EF64036004EFB4070985FB1985FA1A36
:1029F00085F91BAF1BAE1AAD19AC1822C0E0C0F0B0
:102A0000C083C082C0D075D01053B9FDE51D6401EC
:102A1000701F12298578001203BD7F011231A0902A
:102A200002E2E0FF122DE243B901D2D8751D058004
:102A300019E51DB40514121D75780A1203BD121D87
:102A400024F452AB53AAFB751D00D0D0D082D083A2
:102A5000D0F0D0E032E47F557E06FDFC7800120312
:102A60004F121CDA4003121D2D7FFF121CFF40067F
:102A700078C076FF800A90028712032B78C0A607E1
:102A8000E47F5E7E0BFDFC90007B120343121CDA98
:102A90004003121D2DE47FFF121D004005788E7645
:102AA000FF2290028712032B788EA60722900294B1
:102AB0001203B190029112043890029412032B7801
:102AC000061202AA9002941203B190029812135AAD
:102AD0008005C333CE33CED8F91212B490029412CB
:102AE0001266900298E0F9F812132A9002911204EB
:102AF0002F1202EDAF27AE26AD25AC2478061213B7
:102B00002A2290029F1203B190029C120438900274
:102B10009F12032B780A1202AA90029F1203B1900F
:102B200002A312135A8005C333CE33CED8F9121242
:102B3000B490029F1212669002A3E0F9F8121336C5
:102B400090029C12042F1202EDAF27AE26AD25ACE9
:102B500024780A1213362290025D1203C900000085
:102B600000E4FF12000E75ABFF12312F90025D12D0
:102B7000298212013890025D1203B1E4F5AB1231E3
:102B80002F90025D12032BC004C005C006C00712BF
:102B90002985A804A905AA06AB07D007D006D00549
:102BA000D00412014590025D0203B190006412034B
:102BB00043120145122915900288EEF0A3EFF07A36
:102BC0000179C91212517405F0A3EEF0A3EFF07A67
:102BD0000179BF122E92A215301401B350157B015A
:102BE0007A0179BF7D051223629001CAE544F0A302
:102BF000E545F0900288E0FEA3E0FF22C0E0C0F0CF
:102C0000C083C082C0D075D000C000C28D758C3228
:102C1000758AEB9002C3E475F0011200BDC3900207
:102C2000C4E094149002C3E094004012900224A3E4
:102C3000E0785AF6900224E4F0A3F0120004D000E9
:102C4000D0D0D082D083D0F0D0E032E4FF1232571F
:102C50007855EFF67851BFFF04760B800276FFE4DB
:102C6000785FF67852763B08F690335C93FE7401F9
:102C700093FF7880A60608A607EF24CE7883F6EEA9
:102C800034FF18F678847600087664E4123301F68F
:102C90001233017632754B5022A907E4FEFD9002F3
:102CA0005AE0FC703FEF5401FB900220E054016BAE
:102CB000600D30020A201807EC440290025AF0908E
:102CC0000220E030E006EE4410FE8004EE4401FEF7
:102CD000E930E006ED4401FD8004ED4410FDEE5DB9
:102CE000900221F02290021CE0B4011C1212E1407B
:102CF000177814E2FE08E2FF900218E0FCA3E0FD62
:102D0000D39FEC9E402080147814E2FE08E2FF7806
:102D100012E2FC08E2FDD39FEC9E400AED9F78177B
:102D2000F2EC9E18F222E47816F208F22220000C4F
:102D300090021CE0B4011F121B80401A7814E2FEBE
:102D400008E2FFD394E0EE942E5023C3EF9440EEBC
:102D5000941F501D80187814E2FE08E2FFD394F807
:102D6000EE942A5009C3EF9428EE942350031227BF
:102D7000C022EF6003D38001C3920A92027853A667
:102D800007900226E4F0A3745AF07F091230AD9048
:102D9000022A122D9B7C007D031200AB90022C12A4
:102DA0002D9B90022EEEF0A3EFF022EEF0A3EFF0B9
:102DB0007F1A1230AD22E4FF30001890021FE0703D
:102DC0000B121BB6121B0240230F8020121AF44074
:102DD0001B801590021FE0700A121BB6121B0240E6
:102DE0000B8005121AF44004EF4401FF9002E1EF5A
:102DF000F0229002E2E0D394034002E4F0EF14608A
:102E00001214601714601D24037021121D24F45243
:102E1000AB800D121D24F452AB800E121D2442AB68
:102E200053AAFB22121D2442AB43AA04227853E684
:102E3000F520A208300001B350147F041230AD9089
:102E40000232EEF0A3EFF01227C0A2009208A20A0D
:102E5000300201B35004A202920A301A0A1227C0AB
:102E6000E490021DF0C21A229002881203B1900071
:102E700072E0900290F090028C12032B9002951257
:102E800003B1900290E0900299F090028812032B17
:102E9000121864900290E0FF1204929001A61203AF
:102EA0002B229002A3E0FEA3E0FFC003C002C001FA
:102EB00012129175F0021212F2D001D002D003EE7C
:102EC0008FF012010B90029F1212D9121291FF90F3
:102ED00002A2E0B50704E4120099227E05EF540136
:102EE000FD90021FE054016D6007EFF0E490024492
:102EF000F07853E630E00890021FE070027E2890E0
:102F00000244E004F0C39E50037F0022900244EE8E
:102F1000F07F0122900063E042F4E4FF12000E1201
:102F20001D5A75BB01900063E0FF90001EE04FF555
:102F3000B4E4F5B3F5B275B110121DA453BAFE4353
:102F4000B901D2D8E5B930E1FBE4F5BF22000301B5
:102F5000080205030304010501060607010801092B
:102F60000A0A010B010C030D050E0A0F01100111D5
:102F70000A123C13011401153C1601173C180219E2
:102F8000021A3C1B0190029512032BC003C002C021
:102F9000019002911212941212EFD001D002D003CC
:102FA0001203079002911212D9900291121294FF0B
:102FB000900294E0B50704E412009922900298125E
:102FC000032BC003C002C00190029412129412128B
:102FD000EFD001D002D0031203079002941212D94D
:102FE000900294121294FF900297E0B50704E41245
:102FF00000992290028D1203B190029112032B903E
:10300000028D120343D3120286400B9002911203E9
:103010004390028D800990028D1203439002911219
:10302000032B1201452243F80875CD4053CC7F4352
:10303000CC4043CC2043CC1043CC0453CCFD43CBF9
:103040000243CB0153CBBFD2EB53E5FC43E3024336
:10305000F50343900343ED032290001F12032BABB3
:1030600007AA067804120337C3EF9BFFEE9AFE7B94
:10307000017A007946E4FCFD9002987408F0122A67
:103080009D7808EEF208EFF27F0522E4F51D53B9B2
:10309000FD53B9DF43CC02C2D9539FFD438760C2C1
:1030A0008DEF700675BD0D75BC0112331375BE0C26
:1030B000D28C20C90343870300000000227D017CDD
:1030C00000EFC3941C5020EF25E0243EF582E43449
:1030D0002FF583E493FF7E00900226E0FCA3E0FD41
:1030E0001200ABAC06AD07AE04AF0522E4F5E34336
:1030F0009F107F03FEFDFC12323F439F027F037E41
:10310000007D007C0012323F539FEF75BE0EE4F548
:10311000BFF5B975927622900222E0FF900221E07D
:10312000FE6F6014300204785FA606E4FF1230AD33
:10313000900240EEF0A3EFF0900221E0A3F02275A0
:10314000BF0F0000000000000000000000000000B1
:1031500000000000D2D853B9FD43B901E5B930E110
:10316000FBE4F5BF22900018E090335393FF9000EA
:103170001EF0900019E090335393FE900063F0EF3F
:103180004E42D442F442E4F452DC229002877405A9
:10319000F012304912273B900287EFF0BF0205D2B0
:1031A0001AE0FF22122CD5123226900287E0FF226D
:1031B00053BA0F43BA2075BBE6121D4A900063E074
:1031C000F5B4EF7009F5B375B2AF75B1C8229000D0
:1031D00060121D8D2274FFF5F00200BDE0FBE4FAE1
:1031E000F9F81201DE8F458E448D438C4222AB34B8
:1031F000AA33A932A831020286E4900287F075BE94
:103200000E439F027F03FEFDFC12323F75BC02E4B9
:10321000F5BFD2D953CCFD22438901C28DD2A95327
:10322000B8FD120003900224F0A3F0758C32758A69
:10323000EBD28CD2AF227F767E107D017C007804A9
:1032400012034FD31202864003C21822D2182290D2
:1032500002881203B190028874FF12037EEC4D4E77
:103260004F60030080EF22E4FFF582F5837440FE97
:10327000E493F42FFFA3EEB583F6227F0022E490BF
:103280000238F0A3F07F0A1230AD900236EEF0A3C0
:10329000EFF0D2102243D50453F5FB53E5FB43E393
:1032A0000443ED04E490025AF0D29222D3EF9DEE53
:1032B0009C4007EF9DFFEE9CFE22C3ED9FFFEC9E1E
:1032C000FE22E4FF12000E1222AA12205E7F0112DB
:1032D000000E121DC2022B477F0112000E751D0148
:1032E000121DA443BA0143B901D2D822E4FF12311E
:1032F000A0123374121F887F011231A0020CBD90FE
:10330000335EE493FF740193900068CFF0A3EFF075
:103310002208F608F608F608F6082212032BAD0775
:10332000AC0622438901C28CC28F120003758CFB4C
:10333000758AED2220C90CC2AFA807A60408A6050D
:10334000D2AF222275AA3B53BAF343BA0C43B92039
:1033500053B9BF22410018054100190604180000A6
:103360000000000102040810204080AB01900064BE
:10337000C2DA53D80F43D8D0D2D8D2D9229002265D
:10338000E4F0A3227856E608F6221231550232857F
:103390000228A6FFFFFFFFFFFFFFFFFFFFFFFFFF6A
:1033A000FFFFFFFFFFFFFFFFFFFFFFFFFFFFFFFF2D
:00000001FF
